{
    "data": {
        "bytecode": {
            "linkReferences": {},
            "object": "608060405234801561001057600080fd5b50611ca5806100206000396000f3fe608060405234801561001057600080fd5b50600436106100415760003560e01c80637d03f5f314610046578063cfc2f5ff14610064578063efaa55a014610080575b600080fd5b61004e61009c565b60405161005b91906118d7565b60405180910390f35b61007e600480360381019061007991906116f9565b610252565b005b61009a600480360381019061009591906116cc565b610646565b005b60006100a66114a4565b6001816060019060028111156100bf576100be611aee565b5b908160028111156100d3576100d2611aee565b5b8152505060018060008282546100e991906119d1565b9250508190555080600080600154815260200190815260200160002060008201518160000160006101000a81548173ffffffffffffffffffffffffffffffffffffffff021916908373ffffffffffffffffffffffffffffffffffffffff16021790555060208201518160010160006101000a81548173ffffffffffffffffffffffffffffffffffffffff021916908373ffffffffffffffffffffffffffffffffffffffff16021790555060408201518160010160146101000a81548160ff021916908360038111156101be576101bd611aee565b5b021790555060608201518160010160156101000a81548160ff021916908360028111156101ee576101ed611aee565b5b021790555060808201518160020190600361020a929190611529565b509050507fc3e0f84839dc888c892a013d10c8f9d6dc05a21a879d0ce468ca558013e9121c600154336040516102419291906118f2565b60405180910390a160015491505090565b600154831115610297576040517f08c379a000000000000000000000000000000000000000000000000000000000815260040161028e90611897565b60405180910390fd5b60008060008581526020019081526020016000209050600060038111156102c1576102c0611aee565b5b8160010160149054906101000a900460ff1660038111156102e5576102e4611aee565b5b14610325576040517f08c379a000000000000000000000000000000000000000000000000000000000815260040161031c906118b7565b60405180910390fd5b61032e8161097b565b73ffffffffffffffffffffffffffffffffffffffff163373ffffffffffffffffffffffffffffffffffffffff161461039b576040517f08c379a000000000000000000000000000000000000000000000000000000000815260040161039290611857565b60405180910390fd5b600060028111156103af576103ae611aee565b5b8160020184600381106103c5576103c4611b1d565b5b0183600381106103d8576103d7611b1d565b5b602091828204019190069054906101000a900460ff166002811115610400576103ff611aee565b5b14610440576040517f08c379a000000000000000000000000000000000000000000000000000000000815260040161043790611837565b60405180910390fd5b8060010160159054906101000a900460ff1681600201846003811061046857610467611b1d565b5b01836003811061047b5761047a611b1d565b5b602091828204019190066101000a81548160ff021916908360028111156104a5576104a4611aee565b5b02179055507faa03b0eb53c70f6640eba4234ad2c58782c8927e7abf7d3a6e2c45d07ca9d583843385856040516104df949392919061191b565b60405180910390a1600061059b82600201600380602002604051908101604052809291906000905b828210156105925783820160038060200260405190810160405280929190826003801561057e576020028201916000905b82829054906101000a900460ff16600281111561055857610557611aee565b5b815260200190600101906020826000010492830192600103820291508084116105385790505b505050505081526020019060010190610507565b50505050610a5a565b9050600060038111156105b1576105b0611aee565b5b8160038111156105c4576105c3611aee565b5b1461063557808260010160146101000a81548160ff021916908360038111156105f0576105ef611aee565b5b02179055507f132b564c6f96092065580fd28989d181dfbbfe4aa2fb7fb1eda8af68ba3073e08582604051610626929190611997565b60405180910390a15050610641565b61063e82610be8565b50505b505050565b60015481111561068b576040517f08c379a000000000000000000000000000000000000000000000000000000000815260040161068290611897565b60405180910390fd5b600033905060008060008481526020019081526020016000209050600073ffffffffffffffffffffffffffffffffffffffff168160000160009054906101000a900473ffffffffffffffffffffffffffffffffffffffff1673ffffffffffffffffffffffffffffffffffffffff1614806107555750600073ffffffffffffffffffffffffffffffffffffffff168160010160009054906101000a900473ffffffffffffffffffffffffffffffffffffffff1673ffffffffffffffffffffffffffffffffffffffff16145b610794576040517f08c379a000000000000000000000000000000000000000000000000000000000815260040161078b90611877565b60405180910390fd5b600073ffffffffffffffffffffffffffffffffffffffff168160000160009054906101000a900473ffffffffffffffffffffffffffffffffffffffff1673ffffffffffffffffffffffffffffffffffffffff16141561088557818160000160006101000a81548173ffffffffffffffffffffffffffffffffffffffff021916908373ffffffffffffffffffffffffffffffffffffffff1602179055507f8f5866c09e99941481e2be79d3a7698371543fe3ad3387b903553fd6043e855083836001600281111561086757610866611aee565b5b60405161087693929190611960565b60405180910390a15050610978565b600073ffffffffffffffffffffffffffffffffffffffff168160010160009054906101000a900473ffffffffffffffffffffffffffffffffffffffff1673ffffffffffffffffffffffffffffffffffffffff16141561097557818160010160006101000a81548173ffffffffffffffffffffffffffffffffffffffff021916908373ffffffffffffffffffffffffffffffffffffffff1602179055507f8f5866c09e99941481e2be79d3a7698371543fe3ad3387b903553fd6043e8550838360028081111561095757610956611aee565b5b60405161096693929190611960565b60405180910390a15050610978565b50505b50565b60006001600281111561099157610990611aee565b5b8260010160159054906101000a900460ff1660028111156109b5576109b4611aee565b5b14156109e7578160000160009054906101000a900473ffffffffffffffffffffffffffffffffffffffff169050610a55565b6002808111156109fa576109f9611aee565b5b8260010160159054906101000a900460ff166002811115610a1e57610a1d611aee565b5b1415610a50578160010160009054906101000a900473ffffffffffffffffffffffffffffffffffffffff169050610a55565b600090505b919050565b600080610a6683610c89565b905060016002811115610a7c57610a7b611aee565b5b816002811115610a8f57610a8e611aee565b5b1415610a9f576001915050610be3565b600280811115610ab257610ab1611aee565b5b816002811115610ac557610ac4611aee565b5b1415610ad5576002915050610be3565b610ade83610e7c565b905060016002811115610af457610af3611aee565b5b816002811115610b0757610b06611aee565b5b1415610b17576001915050610be3565b600280811115610b2a57610b29611aee565b5b816002811115610b3d57610b3c611aee565b5b1415610b4d576002915050610be3565b610b568361106f565b905060016002811115610b6c57610b6b611aee565b5b816002811115610b7f57610b7e611aee565b5b1415610b8f576001915050610be3565b600280811115610ba257610ba1611aee565b5b816002811115610bb557610bb4611aee565b5b1415610bc5576002915050610be3565b610bce836113e3565b15610bdd576003915050610be3565b60009150505b919050565b60016002811115610bfc57610bfb611aee565b5b8160010160159054906101000a900460ff166002811115610c2057610c1f611aee565b5b1415610c585760028160010160156101000a81548160ff02191690836002811115610c4e57610c4d611aee565b5b0217905550610c86565b60018160010160156101000a81548160ff02191690836002811115610c8057610c7f611aee565b5b02179055505b50565b600080600090505b60038160ff161015610e7157828160ff1660038110610cb357610cb2611b1d565b5b6020020151600160038110610ccb57610cca611b1d565b5b60200201516002811115610ce257610ce1611aee565b5b838260ff1660038110610cf857610cf7611b1d565b5b6020020151600060038110610d1057610d0f611b1d565b5b60200201516002811115610d2757610d26611aee565b5b148015610dbb5750828160ff1660038110610d4557610d44611b1d565b5b6020020151600260038110610d5d57610d5c611b1d565b5b60200201516002811115610d7457610d73611aee565b5b838260ff1660038110610d8a57610d89611b1d565b5b6020020151600160038110610da257610da1611b1d565b5b60200201516002811115610db957610db8611aee565b5b145b8015610e1e575060006002811115610dd657610dd5611aee565b5b838260ff1660038110610dec57610deb611b1d565b5b6020020151600060038110610e0457610e03611b1d565b5b60200201516002811115610e1b57610e1a611aee565b5b14155b15610e5e57828160ff1660038110610e3957610e38611b1d565b5b6020020151600060038110610e5157610e50611b1d565b5b6020020151915050610e77565b8080610e6990611a95565b915050610c91565b50600090505b919050565b600080600090505b60038160ff1610156110645782600160038110610ea457610ea3611b1d565b5b60200201518160ff1660038110610ebe57610ebd611b1d565b5b60200201516002811115610ed557610ed4611aee565b5b83600060038110610ee957610ee8611b1d565b5b60200201518260ff1660038110610f0357610f02611b1d565b5b60200201516002811115610f1a57610f19611aee565b5b148015610fae575082600260038110610f3657610f35611b1d565b5b60200201518160ff1660038110610f5057610f4f611b1d565b5b60200201516002811115610f6757610f66611aee565b5b83600160038110610f7b57610f7a611b1d565b5b60200201518260ff1660038110610f9557610f94611b1d565b5b60200201516002811115610fac57610fab611aee565b5b145b8015611011575060006002811115610fc957610fc8611aee565b5b83600060038110610fdd57610fdc611b1d565b5b60200201518260ff1660038110610ff757610ff6611b1d565b5b6020020151600281111561100e5761100d611aee565b5b14155b15611051578260006003811061102a57611029611b1d565b5b60200201518160ff166003811061104457611043611b1d565b5b602002015191505061106a565b808061105c90611a95565b915050610e84565b50600090505b919050565b60008160016003811061108557611084611b1d565b5b602002015160016003811061109d5761109c611b1d565b5b602002015160028111156110b4576110b3611aee565b5b826000600381106110c8576110c7611b1d565b5b60200201516000600381106110e0576110df611b1d565b5b602002015160028111156110f7576110f6611aee565b5b14801561118757508160026003811061111357611112611b1d565b5b602002015160026003811061112b5761112a611b1d565b5b6020020151600281111561114257611141611aee565b5b8260016003811061115657611155611b1d565b5b602002015160016003811061116e5761116d611b1d565b5b6020020151600281111561118557611184611aee565b5b145b80156111e85750600060028111156111a2576111a1611aee565b5b826000600381106111b6576111b5611b1d565b5b60200201516000600381106111ce576111cd611b1d565b5b602002015160028111156111e5576111e4611aee565b5b14155b15611225578160006003811061120157611200611b1d565b5b602002015160006003811061121957611218611b1d565b5b602002015190506113de565b8160016003811061123957611238611b1d565b5b602002015160016003811061125157611250611b1d565b5b6020020151600281111561126857611267611aee565b5b8260006003811061127c5761127b611b1d565b5b602002015160026003811061129457611293611b1d565b5b602002015160028111156112ab576112aa611aee565b5b14801561133b5750816002600381106112c7576112c6611b1d565b5b60200201516000600381106112df576112de611b1d565b5b602002015160028111156112f6576112f5611aee565b5b8260016003811061130a57611309611b1d565b5b602002015160016003811061132257611321611b1d565b5b6020020151600281111561133957611338611aee565b5b145b801561139c57506000600281111561135657611355611aee565b5b8260006003811061136a57611369611b1d565b5b602002015160026003811061138257611381611b1d565b5b6020020151600281111561139957611398611aee565b5b14155b156113d957816000600381106113b5576113b4611b1d565b5b60200201516002600381106113cd576113cc611b1d565b5b602002015190506113de565b600090505b919050565b600080600090505b60038160ff1610156114995760005b60038160ff161015611485576000600281111561141a57611419611aee565b5b848360ff16600381106114305761142f611b1d565b5b60200201518260ff166003811061144a57611449611b1d565b5b6020020151600281111561146157611460611aee565b5b14156114725760009250505061149f565b808061147d90611a95565b9150506113fa565b50808061149190611a95565b9150506113eb565b50600190505b919050565b6040518060a00160405280600073ffffffffffffffffffffffffffffffffffffffff168152602001600073ffffffffffffffffffffffffffffffffffffffff168152602001600060038111156114fd576114fc611aee565b5b81526020016000600281111561151657611515611aee565b5b8152602001611523611577565b81525090565b8260038101928215611566579160200282015b82811115611565578251829060036115559291906115a4565b509160200191906001019061153c565b5b509050611573919061164d565b5090565b60405180606001604052806003905b61158e611671565b8152602001906001900390816115865790505090565b826003601f0160209004810192821561163c5791602002820160005b8382111561160d57835183826101000a81548160ff021916908360028111156115ec576115eb611aee565b5b021790555092602001926001016020816000010492830192600103026115c0565b801561163a5782816101000a81549060ff021916905560010160208160000104928301926001030261160d565b505b5090506116499190611693565b5090565b5b8082111561166d576000818161166491906116b0565b5060010161164e565b5090565b6040518060600160405280600390602082028036833780820191505090505090565b5b808211156116ac576000816000905550600101611694565b5090565b5060009055565b6000813590506116c681611c58565b92915050565b6000602082840312156116e2576116e1611b4c565b5b60006116f0848285016116b7565b91505092915050565b60008060006060848603121561171257611711611b4c565b5b6000611720868287016116b7565b9350506020611731868287016116b7565b9250506040611742868287016116b7565b9150509250925092565b61175581611a27565b82525050565b61176481611a83565b82525050565b60006117776031836119c0565b915061178282611b51565b604082019050919050565b600061179a6014836119c0565b91506117a582611ba0565b602082019050919050565b60006117bd6015836119c0565b91506117c882611bc9565b602082019050919050565b60006117e06014836119c0565b91506117eb82611bf2565b602082019050919050565b6000611803601b836119c0565b915061180e82611c1b565b602082019050919050565b61182281611a6c565b82525050565b61183181611a76565b82525050565b600060208201905081810360008301526118508161176a565b9050919050565b600060208201905081810360008301526118708161178d565b9050919050565b60006020820190508181036000830152611890816117b0565b9050919050565b600060208201905081810360008301526118b0816117d3565b9050919050565b600060208201905081810360008301526118d0816117f6565b9050919050565b60006020820190506118ec6000830184611819565b92915050565b60006040820190506119076000830185611819565b611914602083018461174c565b9392505050565b60006080820190506119306000830187611819565b61193d602083018661174c565b61194a6040830185611819565b6119576060830184611819565b95945050505050565b60006060820190506119756000830186611819565b611982602083018561174c565b61198f6040830184611828565b949350505050565b60006040820190506119ac6000830185611819565b6119b9602083018461175b565b9392505050565b600082825260208201905092915050565b60006119dc82611a6c565b91506119e783611a6c565b9250827fffffffffffffffffffffffffffffffffffffffffffffffffffffffffffffffff03821115611a1c57611a1b611abf565b5b828201905092915050565b6000611a3282611a4c565b9050919050565b6000819050611a4782611c44565b919050565b600073ffffffffffffffffffffffffffffffffffffffff82169050919050565b6000819050919050565b600060ff82169050919050565b6000611a8e82611a39565b9050919050565b6000611aa082611a76565b915060ff821415611ab457611ab3611abf565b5b600182019050919050565b7f4e487b7100000000000000000000000000000000000000000000000000000000600052601160045260246000fd5b7f4e487b7100000000000000000000000000000000000000000000000000000000600052602160045260246000fd5b7f4e487b7100000000000000000000000000000000000000000000000000000000600052603260045260246000fd5b600080fd5b7f546865726520697320616c72656164792061206d61726b20617420746865206760008201527f6976656e20636f6f7264696e617465732e000000000000000000000000000000602082015250565b7f4974206973206e6f7420796f7572207475726e2e000000000000000000000000600082015250565b7f47616d6520616c726561647920737461727465642e0000000000000000000000600082015250565b7f4e6f20737563682067616d65206578697374732e000000000000000000000000600082015250565b7f5468652067616d652068617320616c726561647920656e6465642e0000000000600082015250565b60048110611c5557611c54611aee565b5b50565b611c6181611a6c565b8114611c6c57600080fd5b5056fea2646970667358221220042a8ed9eb3b01337a83e88b9e39b5b2db32a23e6bd4e4ef9fc34c1ab1bc40c864736f6c63430008070033",
            "opcodes": "PUSH1 0x80 PUSH1 0x40 MSTORE CALLVALUE DUP1 ISZERO PUSH2 0x10 JUMPI PUSH1 0x0 DUP1 REVERT JUMPDEST POP PUSH2 0x1CA5 DUP1 PUSH2 0x20 PUSH1 0x0 CODECOPY PUSH1 0x0 RETURN INVALID PUSH1 0x80 PUSH1 0x40 MSTORE CALLVALUE DUP1 ISZERO PUSH2 0x10 JUMPI PUSH1 0x0 DUP1 REVERT JUMPDEST POP PUSH1 0x4 CALLDATASIZE LT PUSH2 0x41 JUMPI PUSH1 0x0 CALLDATALOAD PUSH1 0xE0 SHR DUP1 PUSH4 0x7D03F5F3 EQ PUSH2 0x46 JUMPI DUP1 PUSH4 0xCFC2F5FF EQ PUSH2 0x64 JUMPI DUP1 PUSH4 0xEFAA55A0 EQ PUSH2 0x80 JUMPI JUMPDEST PUSH1 0x0 DUP1 REVERT JUMPDEST PUSH2 0x4E PUSH2 0x9C JUMP JUMPDEST PUSH1 0x40 MLOAD PUSH2 0x5B SWAP2 SWAP1 PUSH2 0x18D7 JUMP JUMPDEST PUSH1 0x40 MLOAD DUP1 SWAP2 SUB SWAP1 RETURN JUMPDEST PUSH2 0x7E PUSH1 0x4 DUP1 CALLDATASIZE SUB DUP2 ADD SWAP1 PUSH2 0x79 SWAP2 SWAP1 PUSH2 0x16F9 JUMP JUMPDEST PUSH2 0x252 JUMP JUMPDEST STOP JUMPDEST PUSH2 0x9A PUSH1 0x4 DUP1 CALLDATASIZE SUB DUP2 ADD SWAP1 PUSH2 0x95 SWAP2 SWAP1 PUSH2 0x16CC JUMP JUMPDEST PUSH2 0x646 JUMP JUMPDEST STOP JUMPDEST PUSH1 0x0 PUSH2 0xA6 PUSH2 0x14A4 JUMP JUMPDEST PUSH1 0x1 DUP2 PUSH1 0x60 ADD SWAP1 PUSH1 0x2 DUP2 GT ISZERO PUSH2 0xBF JUMPI PUSH2 0xBE PUSH2 0x1AEE JUMP JUMPDEST JUMPDEST SWAP1 DUP2 PUSH1 0x2 DUP2 GT ISZERO PUSH2 0xD3 JUMPI PUSH2 0xD2 PUSH2 0x1AEE JUMP JUMPDEST JUMPDEST DUP2 MSTORE POP POP PUSH1 0x1 DUP1 PUSH1 0x0 DUP3 DUP3 SLOAD PUSH2 0xE9 SWAP2 SWAP1 PUSH2 0x19D1 JUMP JUMPDEST SWAP3 POP POP DUP2 SWAP1 SSTORE POP DUP1 PUSH1 0x0 DUP1 PUSH1 0x1 SLOAD DUP2 MSTORE PUSH1 0x20 ADD SWAP1 DUP2 MSTORE PUSH1 0x20 ADD PUSH1 0x0 KECCAK256 PUSH1 0x0 DUP3 ADD MLOAD DUP2 PUSH1 0x0 ADD PUSH1 0x0 PUSH2 0x100 EXP DUP2 SLOAD DUP2 PUSH20 0xFFFFFFFFFFFFFFFFFFFFFFFFFFFFFFFFFFFFFFFF MUL NOT AND SWAP1 DUP4 PUSH20 0xFFFFFFFFFFFFFFFFFFFFFFFFFFFFFFFFFFFFFFFF AND MUL OR SWAP1 SSTORE POP PUSH1 0x20 DUP3 ADD MLOAD DUP2 PUSH1 0x1 ADD PUSH1 0x0 PUSH2 0x100 EXP DUP2 SLOAD DUP2 PUSH20 0xFFFFFFFFFFFFFFFFFFFFFFFFFFFFFFFFFFFFFFFF MUL NOT AND SWAP1 DUP4 PUSH20 0xFFFFFFFFFFFFFFFFFFFFFFFFFFFFFFFFFFFFFFFF AND MUL OR SWAP1 SSTORE POP PUSH1 0x40 DUP3 ADD MLOAD DUP2 PUSH1 0x1 ADD PUSH1 0x14 PUSH2 0x100 EXP DUP2 SLOAD DUP2 PUSH1 0xFF MUL NOT AND SWAP1 DUP4 PUSH1 0x3 DUP2 GT ISZERO PUSH2 0x1BE JUMPI PUSH2 0x1BD PUSH2 0x1AEE JUMP JUMPDEST JUMPDEST MUL OR SWAP1 SSTORE POP PUSH1 0x60 DUP3 ADD MLOAD DUP2 PUSH1 0x1 ADD PUSH1 0x15 PUSH2 0x100 EXP DUP2 SLOAD DUP2 PUSH1 0xFF MUL NOT AND SWAP1 DUP4 PUSH1 0x2 DUP2 GT ISZERO PUSH2 0x1EE JUMPI PUSH2 0x1ED PUSH2 0x1AEE JUMP JUMPDEST JUMPDEST MUL OR SWAP1 SSTORE POP PUSH1 0x80 DUP3 ADD MLOAD DUP2 PUSH1 0x2 ADD SWAP1 PUSH1 0x3 PUSH2 0x20A SWAP3 SWAP2 SWAP1 PUSH2 0x1529 JUMP JUMPDEST POP SWAP1 POP POP PUSH32 0xC3E0F84839DC888C892A013D10C8F9D6DC05A21A879D0CE468CA558013E9121C PUSH1 0x1 SLOAD CALLER PUSH1 0x40 MLOAD PUSH2 0x241 SWAP3 SWAP2 SWAP1 PUSH2 0x18F2 JUMP JUMPDEST PUSH1 0x40 MLOAD DUP1 SWAP2 SUB SWAP1 LOG1 PUSH1 0x1 SLOAD SWAP2 POP POP SWAP1 JUMP JUMPDEST PUSH1 0x1 SLOAD DUP4 GT ISZERO PUSH2 0x297 JUMPI PUSH1 0x40 MLOAD PUSH32 0x8C379A000000000000000000000000000000000000000000000000000000000 DUP2 MSTORE PUSH1 0x4 ADD PUSH2 0x28E SWAP1 PUSH2 0x1897 JUMP JUMPDEST PUSH1 0x40 MLOAD DUP1 SWAP2 SUB SWAP1 REVERT JUMPDEST PUSH1 0x0 DUP1 PUSH1 0x0 DUP6 DUP2 MSTORE PUSH1 0x20 ADD SWAP1 DUP2 MSTORE PUSH1 0x20 ADD PUSH1 0x0 KECCAK256 SWAP1 POP PUSH1 0x0 PUSH1 0x3 DUP2 GT ISZERO PUSH2 0x2C1 JUMPI PUSH2 0x2C0 PUSH2 0x1AEE JUMP JUMPDEST JUMPDEST DUP2 PUSH1 0x1 ADD PUSH1 0x14 SWAP1 SLOAD SWAP1 PUSH2 0x100 EXP SWAP1 DIV PUSH1 0xFF AND PUSH1 0x3 DUP2 GT ISZERO PUSH2 0x2E5 JUMPI PUSH2 0x2E4 PUSH2 0x1AEE JUMP JUMPDEST JUMPDEST EQ PUSH2 0x325 JUMPI PUSH1 0x40 MLOAD PUSH32 0x8C379A000000000000000000000000000000000000000000000000000000000 DUP2 MSTORE PUSH1 0x4 ADD PUSH2 0x31C SWAP1 PUSH2 0x18B7 JUMP JUMPDEST PUSH1 0x40 MLOAD DUP1 SWAP2 SUB SWAP1 REVERT JUMPDEST PUSH2 0x32E DUP2 PUSH2 0x97B JUMP JUMPDEST PUSH20 0xFFFFFFFFFFFFFFFFFFFFFFFFFFFFFFFFFFFFFFFF AND CALLER PUSH20 0xFFFFFFFFFFFFFFFFFFFFFFFFFFFFFFFFFFFFFFFF AND EQ PUSH2 0x39B JUMPI PUSH1 0x40 MLOAD PUSH32 0x8C379A000000000000000000000000000000000000000000000000000000000 DUP2 MSTORE PUSH1 0x4 ADD PUSH2 0x392 SWAP1 PUSH2 0x1857 JUMP JUMPDEST PUSH1 0x40 MLOAD DUP1 SWAP2 SUB SWAP1 REVERT JUMPDEST PUSH1 0x0 PUSH1 0x2 DUP2 GT ISZERO PUSH2 0x3AF JUMPI PUSH2 0x3AE PUSH2 0x1AEE JUMP JUMPDEST JUMPDEST DUP2 PUSH1 0x2 ADD DUP5 PUSH1 0x3 DUP2 LT PUSH2 0x3C5 JUMPI PUSH2 0x3C4 PUSH2 0x1B1D JUMP JUMPDEST JUMPDEST ADD DUP4 PUSH1 0x3 DUP2 LT PUSH2 0x3D8 JUMPI PUSH2 0x3D7 PUSH2 0x1B1D JUMP JUMPDEST JUMPDEST PUSH1 0x20 SWAP2 DUP3 DUP3 DIV ADD SWAP2 SWAP1 MOD SWAP1 SLOAD SWAP1 PUSH2 0x100 EXP SWAP1 DIV PUSH1 0xFF AND PUSH1 0x2 DUP2 GT ISZERO PUSH2 0x400 JUMPI PUSH2 0x3FF PUSH2 0x1AEE JUMP JUMPDEST JUMPDEST EQ PUSH2 0x440 JUMPI PUSH1 0x40 MLOAD PUSH32 0x8C379A000000000000000000000000000000000000000000000000000000000 DUP2 MSTORE PUSH1 0x4 ADD PUSH2 0x437 SWAP1 PUSH2 0x1837 JUMP JUMPDEST PUSH1 0x40 MLOAD DUP1 SWAP2 SUB SWAP1 REVERT JUMPDEST DUP1 PUSH1 0x1 ADD PUSH1 0x15 SWAP1 SLOAD SWAP1 PUSH2 0x100 EXP SWAP1 DIV PUSH1 0xFF AND DUP2 PUSH1 0x2 ADD DUP5 PUSH1 0x3 DUP2 LT PUSH2 0x468 JUMPI PUSH2 0x467 PUSH2 0x1B1D JUMP JUMPDEST JUMPDEST ADD DUP4 PUSH1 0x3 DUP2 LT PUSH2 0x47B JUMPI PUSH2 0x47A PUSH2 0x1B1D JUMP JUMPDEST JUMPDEST PUSH1 0x20 SWAP2 DUP3 DUP3 DIV ADD SWAP2 SWAP1 MOD PUSH2 0x100 EXP DUP2 SLOAD DUP2 PUSH1 0xFF MUL NOT AND SWAP1 DUP4 PUSH1 0x2 DUP2 GT ISZERO PUSH2 0x4A5 JUMPI PUSH2 0x4A4 PUSH2 0x1AEE JUMP JUMPDEST JUMPDEST MUL OR SWAP1 SSTORE POP PUSH32 0xAA03B0EB53C70F6640EBA4234AD2C58782C8927E7ABF7D3A6E2C45D07CA9D583 DUP5 CALLER DUP6 DUP6 PUSH1 0x40 MLOAD PUSH2 0x4DF SWAP5 SWAP4 SWAP3 SWAP2 SWAP1 PUSH2 0x191B JUMP JUMPDEST PUSH1 0x40 MLOAD DUP1 SWAP2 SUB SWAP1 LOG1 PUSH1 0x0 PUSH2 0x59B DUP3 PUSH1 0x2 ADD PUSH1 0x3 DUP1 PUSH1 0x20 MUL PUSH1 0x40 MLOAD SWAP1 DUP2 ADD PUSH1 0x40 MSTORE DUP1 SWAP3 SWAP2 SWAP1 PUSH1 0x0 SWAP1 JUMPDEST DUP3 DUP3 LT ISZERO PUSH2 0x592 JUMPI DUP4 DUP3 ADD PUSH1 0x3 DUP1 PUSH1 0x20 MUL PUSH1 0x40 MLOAD SWAP1 DUP2 ADD PUSH1 0x40 MSTORE DUP1 SWAP3 SWAP2 SWAP1 DUP3 PUSH1 0x3 DUP1 ISZERO PUSH2 0x57E JUMPI PUSH1 0x20 MUL DUP3 ADD SWAP2 PUSH1 0x0 SWAP1 JUMPDEST DUP3 DUP3 SWAP1 SLOAD SWAP1 PUSH2 0x100 EXP SWAP1 DIV PUSH1 0xFF AND PUSH1 0x2 DUP2 GT ISZERO PUSH2 0x558 JUMPI PUSH2 0x557 PUSH2 0x1AEE JUMP JUMPDEST JUMPDEST DUP2 MSTORE PUSH1 0x20 ADD SWAP1 PUSH1 0x1 ADD SWAP1 PUSH1 0x20 DUP3 PUSH1 0x0 ADD DIV SWAP3 DUP4 ADD SWAP3 PUSH1 0x1 SUB DUP3 MUL SWAP2 POP DUP1 DUP5 GT PUSH2 0x538 JUMPI SWAP1 POP JUMPDEST POP POP POP POP POP DUP2 MSTORE PUSH1 0x20 ADD SWAP1 PUSH1 0x1 ADD SWAP1 PUSH2 0x507 JUMP JUMPDEST POP POP POP POP PUSH2 0xA5A JUMP JUMPDEST SWAP1 POP PUSH1 0x0 PUSH1 0x3 DUP2 GT ISZERO PUSH2 0x5B1 JUMPI PUSH2 0x5B0 PUSH2 0x1AEE JUMP JUMPDEST JUMPDEST DUP2 PUSH1 0x3 DUP2 GT ISZERO PUSH2 0x5C4 JUMPI PUSH2 0x5C3 PUSH2 0x1AEE JUMP JUMPDEST JUMPDEST EQ PUSH2 0x635 JUMPI DUP1 DUP3 PUSH1 0x1 ADD PUSH1 0x14 PUSH2 0x100 EXP DUP2 SLOAD DUP2 PUSH1 0xFF MUL NOT AND SWAP1 DUP4 PUSH1 0x3 DUP2 GT ISZERO PUSH2 0x5F0 JUMPI PUSH2 0x5EF PUSH2 0x1AEE JUMP JUMPDEST JUMPDEST MUL OR SWAP1 SSTORE POP PUSH32 0x132B564C6F96092065580FD28989D181DFBBFE4AA2FB7FB1EDA8AF68BA3073E0 DUP6 DUP3 PUSH1 0x40 MLOAD PUSH2 0x626 SWAP3 SWAP2 SWAP1 PUSH2 0x1997 JUMP JUMPDEST PUSH1 0x40 MLOAD DUP1 SWAP2 SUB SWAP1 LOG1 POP POP PUSH2 0x641 JUMP JUMPDEST PUSH2 0x63E DUP3 PUSH2 0xBE8 JUMP JUMPDEST POP POP JUMPDEST POP POP POP JUMP JUMPDEST PUSH1 0x1 SLOAD DUP2 GT ISZERO PUSH2 0x68B JUMPI PUSH1 0x40 MLOAD PUSH32 0x8C379A000000000000000000000000000000000000000000000000000000000 DUP2 MSTORE PUSH1 0x4 ADD PUSH2 0x682 SWAP1 PUSH2 0x1897 JUMP JUMPDEST PUSH1 0x40 MLOAD DUP1 SWAP2 SUB SWAP1 REVERT JUMPDEST PUSH1 0x0 CALLER SWAP1 POP PUSH1 0x0 DUP1 PUSH1 0x0 DUP5 DUP2 MSTORE PUSH1 0x20 ADD SWAP1 DUP2 MSTORE PUSH1 0x20 ADD PUSH1 0x0 KECCAK256 SWAP1 POP PUSH1 0x0 PUSH20 0xFFFFFFFFFFFFFFFFFFFFFFFFFFFFFFFFFFFFFFFF AND DUP2 PUSH1 0x0 ADD PUSH1 0x0 SWAP1 SLOAD SWAP1 PUSH2 0x100 EXP SWAP1 DIV PUSH20 0xFFFFFFFFFFFFFFFFFFFFFFFFFFFFFFFFFFFFFFFF AND PUSH20 0xFFFFFFFFFFFFFFFFFFFFFFFFFFFFFFFFFFFFFFFF AND EQ DUP1 PUSH2 0x755 JUMPI POP PUSH1 0x0 PUSH20 0xFFFFFFFFFFFFFFFFFFFFFFFFFFFFFFFFFFFFFFFF AND DUP2 PUSH1 0x1 ADD PUSH1 0x0 SWAP1 SLOAD SWAP1 PUSH2 0x100 EXP SWAP1 DIV PUSH20 0xFFFFFFFFFFFFFFFFFFFFFFFFFFFFFFFFFFFFFFFF AND PUSH20 0xFFFFFFFFFFFFFFFFFFFFFFFFFFFFFFFFFFFFFFFF AND EQ JUMPDEST PUSH2 0x794 JUMPI PUSH1 0x40 MLOAD PUSH32 0x8C379A000000000000000000000000000000000000000000000000000000000 DUP2 MSTORE PUSH1 0x4 ADD PUSH2 0x78B SWAP1 PUSH2 0x1877 JUMP JUMPDEST PUSH1 0x40 MLOAD DUP1 SWAP2 SUB SWAP1 REVERT JUMPDEST PUSH1 0x0 PUSH20 0xFFFFFFFFFFFFFFFFFFFFFFFFFFFFFFFFFFFFFFFF AND DUP2 PUSH1 0x0 ADD PUSH1 0x0 SWAP1 SLOAD SWAP1 PUSH2 0x100 EXP SWAP1 DIV PUSH20 0xFFFFFFFFFFFFFFFFFFFFFFFFFFFFFFFFFFFFFFFF AND PUSH20 0xFFFFFFFFFFFFFFFFFFFFFFFFFFFFFFFFFFFFFFFF AND EQ ISZERO PUSH2 0x885 JUMPI DUP2 DUP2 PUSH1 0x0 ADD PUSH1 0x0 PUSH2 0x100 EXP DUP2 SLOAD DUP2 PUSH20 0xFFFFFFFFFFFFFFFFFFFFFFFFFFFFFFFFFFFFFFFF MUL NOT AND SWAP1 DUP4 PUSH20 0xFFFFFFFFFFFFFFFFFFFFFFFFFFFFFFFFFFFFFFFF AND MUL OR SWAP1 SSTORE POP PUSH32 0x8F5866C09E99941481E2BE79D3A7698371543FE3AD3387B903553FD6043E8550 DUP4 DUP4 PUSH1 0x1 PUSH1 0x2 DUP2 GT ISZERO PUSH2 0x867 JUMPI PUSH2 0x866 PUSH2 0x1AEE JUMP JUMPDEST JUMPDEST PUSH1 0x40 MLOAD PUSH2 0x876 SWAP4 SWAP3 SWAP2 SWAP1 PUSH2 0x1960 JUMP JUMPDEST PUSH1 0x40 MLOAD DUP1 SWAP2 SUB SWAP1 LOG1 POP POP PUSH2 0x978 JUMP JUMPDEST PUSH1 0x0 PUSH20 0xFFFFFFFFFFFFFFFFFFFFFFFFFFFFFFFFFFFFFFFF AND DUP2 PUSH1 0x1 ADD PUSH1 0x0 SWAP1 SLOAD SWAP1 PUSH2 0x100 EXP SWAP1 DIV PUSH20 0xFFFFFFFFFFFFFFFFFFFFFFFFFFFFFFFFFFFFFFFF AND PUSH20 0xFFFFFFFFFFFFFFFFFFFFFFFFFFFFFFFFFFFFFFFF AND EQ ISZERO PUSH2 0x975 JUMPI DUP2 DUP2 PUSH1 0x1 ADD PUSH1 0x0 PUSH2 0x100 EXP DUP2 SLOAD DUP2 PUSH20 0xFFFFFFFFFFFFFFFFFFFFFFFFFFFFFFFFFFFFFFFF MUL NOT AND SWAP1 DUP4 PUSH20 0xFFFFFFFFFFFFFFFFFFFFFFFFFFFFFFFFFFFFFFFF AND MUL OR SWAP1 SSTORE POP PUSH32 0x8F5866C09E99941481E2BE79D3A7698371543FE3AD3387B903553FD6043E8550 DUP4 DUP4 PUSH1 0x2 DUP1 DUP2 GT ISZERO PUSH2 0x957 JUMPI PUSH2 0x956 PUSH2 0x1AEE JUMP JUMPDEST JUMPDEST PUSH1 0x40 MLOAD PUSH2 0x966 SWAP4 SWAP3 SWAP2 SWAP1 PUSH2 0x1960 JUMP JUMPDEST PUSH1 0x40 MLOAD DUP1 SWAP2 SUB SWAP1 LOG1 POP POP PUSH2 0x978 JUMP JUMPDEST POP POP JUMPDEST POP JUMP JUMPDEST PUSH1 0x0 PUSH1 0x1 PUSH1 0x2 DUP2 GT ISZERO PUSH2 0x991 JUMPI PUSH2 0x990 PUSH2 0x1AEE JUMP JUMPDEST JUMPDEST DUP3 PUSH1 0x1 ADD PUSH1 0x15 SWAP1 SLOAD SWAP1 PUSH2 0x100 EXP SWAP1 DIV PUSH1 0xFF AND PUSH1 0x2 DUP2 GT ISZERO PUSH2 0x9B5 JUMPI PUSH2 0x9B4 PUSH2 0x1AEE JUMP JUMPDEST JUMPDEST EQ ISZERO PUSH2 0x9E7 JUMPI DUP2 PUSH1 0x0 ADD PUSH1 0x0 SWAP1 SLOAD SWAP1 PUSH2 0x100 EXP SWAP1 DIV PUSH20 0xFFFFFFFFFFFFFFFFFFFFFFFFFFFFFFFFFFFFFFFF AND SWAP1 POP PUSH2 0xA55 JUMP JUMPDEST PUSH1 0x2 DUP1 DUP2 GT ISZERO PUSH2 0x9FA JUMPI PUSH2 0x9F9 PUSH2 0x1AEE JUMP JUMPDEST JUMPDEST DUP3 PUSH1 0x1 ADD PUSH1 0x15 SWAP1 SLOAD SWAP1 PUSH2 0x100 EXP SWAP1 DIV PUSH1 0xFF AND PUSH1 0x2 DUP2 GT ISZERO PUSH2 0xA1E JUMPI PUSH2 0xA1D PUSH2 0x1AEE JUMP JUMPDEST JUMPDEST EQ ISZERO PUSH2 0xA50 JUMPI DUP2 PUSH1 0x1 ADD PUSH1 0x0 SWAP1 SLOAD SWAP1 PUSH2 0x100 EXP SWAP1 DIV PUSH20 0xFFFFFFFFFFFFFFFFFFFFFFFFFFFFFFFFFFFFFFFF AND SWAP1 POP PUSH2 0xA55 JUMP JUMPDEST PUSH1 0x0 SWAP1 POP JUMPDEST SWAP2 SWAP1 POP JUMP JUMPDEST PUSH1 0x0 DUP1 PUSH2 0xA66 DUP4 PUSH2 0xC89 JUMP JUMPDEST SWAP1 POP PUSH1 0x1 PUSH1 0x2 DUP2 GT ISZERO PUSH2 0xA7C JUMPI PUSH2 0xA7B PUSH2 0x1AEE JUMP JUMPDEST JUMPDEST DUP2 PUSH1 0x2 DUP2 GT ISZERO PUSH2 0xA8F JUMPI PUSH2 0xA8E PUSH2 0x1AEE JUMP JUMPDEST JUMPDEST EQ ISZERO PUSH2 0xA9F JUMPI PUSH1 0x1 SWAP2 POP POP PUSH2 0xBE3 JUMP JUMPDEST PUSH1 0x2 DUP1 DUP2 GT ISZERO PUSH2 0xAB2 JUMPI PUSH2 0xAB1 PUSH2 0x1AEE JUMP JUMPDEST JUMPDEST DUP2 PUSH1 0x2 DUP2 GT ISZERO PUSH2 0xAC5 JUMPI PUSH2 0xAC4 PUSH2 0x1AEE JUMP JUMPDEST JUMPDEST EQ ISZERO PUSH2 0xAD5 JUMPI PUSH1 0x2 SWAP2 POP POP PUSH2 0xBE3 JUMP JUMPDEST PUSH2 0xADE DUP4 PUSH2 0xE7C JUMP JUMPDEST SWAP1 POP PUSH1 0x1 PUSH1 0x2 DUP2 GT ISZERO PUSH2 0xAF4 JUMPI PUSH2 0xAF3 PUSH2 0x1AEE JUMP JUMPDEST JUMPDEST DUP2 PUSH1 0x2 DUP2 GT ISZERO PUSH2 0xB07 JUMPI PUSH2 0xB06 PUSH2 0x1AEE JUMP JUMPDEST JUMPDEST EQ ISZERO PUSH2 0xB17 JUMPI PUSH1 0x1 SWAP2 POP POP PUSH2 0xBE3 JUMP JUMPDEST PUSH1 0x2 DUP1 DUP2 GT ISZERO PUSH2 0xB2A JUMPI PUSH2 0xB29 PUSH2 0x1AEE JUMP JUMPDEST JUMPDEST DUP2 PUSH1 0x2 DUP2 GT ISZERO PUSH2 0xB3D JUMPI PUSH2 0xB3C PUSH2 0x1AEE JUMP JUMPDEST JUMPDEST EQ ISZERO PUSH2 0xB4D JUMPI PUSH1 0x2 SWAP2 POP POP PUSH2 0xBE3 JUMP JUMPDEST PUSH2 0xB56 DUP4 PUSH2 0x106F JUMP JUMPDEST SWAP1 POP PUSH1 0x1 PUSH1 0x2 DUP2 GT ISZERO PUSH2 0xB6C JUMPI PUSH2 0xB6B PUSH2 0x1AEE JUMP JUMPDEST JUMPDEST DUP2 PUSH1 0x2 DUP2 GT ISZERO PUSH2 0xB7F JUMPI PUSH2 0xB7E PUSH2 0x1AEE JUMP JUMPDEST JUMPDEST EQ ISZERO PUSH2 0xB8F JUMPI PUSH1 0x1 SWAP2 POP POP PUSH2 0xBE3 JUMP JUMPDEST PUSH1 0x2 DUP1 DUP2 GT ISZERO PUSH2 0xBA2 JUMPI PUSH2 0xBA1 PUSH2 0x1AEE JUMP JUMPDEST JUMPDEST DUP2 PUSH1 0x2 DUP2 GT ISZERO PUSH2 0xBB5 JUMPI PUSH2 0xBB4 PUSH2 0x1AEE JUMP JUMPDEST JUMPDEST EQ ISZERO PUSH2 0xBC5 JUMPI PUSH1 0x2 SWAP2 POP POP PUSH2 0xBE3 JUMP JUMPDEST PUSH2 0xBCE DUP4 PUSH2 0x13E3 JUMP JUMPDEST ISZERO PUSH2 0xBDD JUMPI PUSH1 0x3 SWAP2 POP POP PUSH2 0xBE3 JUMP JUMPDEST PUSH1 0x0 SWAP2 POP POP JUMPDEST SWAP2 SWAP1 POP JUMP JUMPDEST PUSH1 0x1 PUSH1 0x2 DUP2 GT ISZERO PUSH2 0xBFC JUMPI PUSH2 0xBFB PUSH2 0x1AEE JUMP JUMPDEST JUMPDEST DUP2 PUSH1 0x1 ADD PUSH1 0x15 SWAP1 SLOAD SWAP1 PUSH2 0x100 EXP SWAP1 DIV PUSH1 0xFF AND PUSH1 0x2 DUP2 GT ISZERO PUSH2 0xC20 JUMPI PUSH2 0xC1F PUSH2 0x1AEE JUMP JUMPDEST JUMPDEST EQ ISZERO PUSH2 0xC58 JUMPI PUSH1 0x2 DUP2 PUSH1 0x1 ADD PUSH1 0x15 PUSH2 0x100 EXP DUP2 SLOAD DUP2 PUSH1 0xFF MUL NOT AND SWAP1 DUP4 PUSH1 0x2 DUP2 GT ISZERO PUSH2 0xC4E JUMPI PUSH2 0xC4D PUSH2 0x1AEE JUMP JUMPDEST JUMPDEST MUL OR SWAP1 SSTORE POP PUSH2 0xC86 JUMP JUMPDEST PUSH1 0x1 DUP2 PUSH1 0x1 ADD PUSH1 0x15 PUSH2 0x100 EXP DUP2 SLOAD DUP2 PUSH1 0xFF MUL NOT AND SWAP1 DUP4 PUSH1 0x2 DUP2 GT ISZERO PUSH2 0xC80 JUMPI PUSH2 0xC7F PUSH2 0x1AEE JUMP JUMPDEST JUMPDEST MUL OR SWAP1 SSTORE POP JUMPDEST POP JUMP JUMPDEST PUSH1 0x0 DUP1 PUSH1 0x0 SWAP1 POP JUMPDEST PUSH1 0x3 DUP2 PUSH1 0xFF AND LT ISZERO PUSH2 0xE71 JUMPI DUP3 DUP2 PUSH1 0xFF AND PUSH1 0x3 DUP2 LT PUSH2 0xCB3 JUMPI PUSH2 0xCB2 PUSH2 0x1B1D JUMP JUMPDEST JUMPDEST PUSH1 0x20 MUL ADD MLOAD PUSH1 0x1 PUSH1 0x3 DUP2 LT PUSH2 0xCCB JUMPI PUSH2 0xCCA PUSH2 0x1B1D JUMP JUMPDEST JUMPDEST PUSH1 0x20 MUL ADD MLOAD PUSH1 0x2 DUP2 GT ISZERO PUSH2 0xCE2 JUMPI PUSH2 0xCE1 PUSH2 0x1AEE JUMP JUMPDEST JUMPDEST DUP4 DUP3 PUSH1 0xFF AND PUSH1 0x3 DUP2 LT PUSH2 0xCF8 JUMPI PUSH2 0xCF7 PUSH2 0x1B1D JUMP JUMPDEST JUMPDEST PUSH1 0x20 MUL ADD MLOAD PUSH1 0x0 PUSH1 0x3 DUP2 LT PUSH2 0xD10 JUMPI PUSH2 0xD0F PUSH2 0x1B1D JUMP JUMPDEST JUMPDEST PUSH1 0x20 MUL ADD MLOAD PUSH1 0x2 DUP2 GT ISZERO PUSH2 0xD27 JUMPI PUSH2 0xD26 PUSH2 0x1AEE JUMP JUMPDEST JUMPDEST EQ DUP1 ISZERO PUSH2 0xDBB JUMPI POP DUP3 DUP2 PUSH1 0xFF AND PUSH1 0x3 DUP2 LT PUSH2 0xD45 JUMPI PUSH2 0xD44 PUSH2 0x1B1D JUMP JUMPDEST JUMPDEST PUSH1 0x20 MUL ADD MLOAD PUSH1 0x2 PUSH1 0x3 DUP2 LT PUSH2 0xD5D JUMPI PUSH2 0xD5C PUSH2 0x1B1D JUMP JUMPDEST JUMPDEST PUSH1 0x20 MUL ADD MLOAD PUSH1 0x2 DUP2 GT ISZERO PUSH2 0xD74 JUMPI PUSH2 0xD73 PUSH2 0x1AEE JUMP JUMPDEST JUMPDEST DUP4 DUP3 PUSH1 0xFF AND PUSH1 0x3 DUP2 LT PUSH2 0xD8A JUMPI PUSH2 0xD89 PUSH2 0x1B1D JUMP JUMPDEST JUMPDEST PUSH1 0x20 MUL ADD MLOAD PUSH1 0x1 PUSH1 0x3 DUP2 LT PUSH2 0xDA2 JUMPI PUSH2 0xDA1 PUSH2 0x1B1D JUMP JUMPDEST JUMPDEST PUSH1 0x20 MUL ADD MLOAD PUSH1 0x2 DUP2 GT ISZERO PUSH2 0xDB9 JUMPI PUSH2 0xDB8 PUSH2 0x1AEE JUMP JUMPDEST JUMPDEST EQ JUMPDEST DUP1 ISZERO PUSH2 0xE1E JUMPI POP PUSH1 0x0 PUSH1 0x2 DUP2 GT ISZERO PUSH2 0xDD6 JUMPI PUSH2 0xDD5 PUSH2 0x1AEE JUMP JUMPDEST JUMPDEST DUP4 DUP3 PUSH1 0xFF AND PUSH1 0x3 DUP2 LT PUSH2 0xDEC JUMPI PUSH2 0xDEB PUSH2 0x1B1D JUMP JUMPDEST JUMPDEST PUSH1 0x20 MUL ADD MLOAD PUSH1 0x0 PUSH1 0x3 DUP2 LT PUSH2 0xE04 JUMPI PUSH2 0xE03 PUSH2 0x1B1D JUMP JUMPDEST JUMPDEST PUSH1 0x20 MUL ADD MLOAD PUSH1 0x2 DUP2 GT ISZERO PUSH2 0xE1B JUMPI PUSH2 0xE1A PUSH2 0x1AEE JUMP JUMPDEST JUMPDEST EQ ISZERO JUMPDEST ISZERO PUSH2 0xE5E JUMPI DUP3 DUP2 PUSH1 0xFF AND PUSH1 0x3 DUP2 LT PUSH2 0xE39 JUMPI PUSH2 0xE38 PUSH2 0x1B1D JUMP JUMPDEST JUMPDEST PUSH1 0x20 MUL ADD MLOAD PUSH1 0x0 PUSH1 0x3 DUP2 LT PUSH2 0xE51 JUMPI PUSH2 0xE50 PUSH2 0x1B1D JUMP JUMPDEST JUMPDEST PUSH1 0x20 MUL ADD MLOAD SWAP2 POP POP PUSH2 0xE77 JUMP JUMPDEST DUP1 DUP1 PUSH2 0xE69 SWAP1 PUSH2 0x1A95 JUMP JUMPDEST SWAP2 POP POP PUSH2 0xC91 JUMP JUMPDEST POP PUSH1 0x0 SWAP1 POP JUMPDEST SWAP2 SWAP1 POP JUMP JUMPDEST PUSH1 0x0 DUP1 PUSH1 0x0 SWAP1 POP JUMPDEST PUSH1 0x3 DUP2 PUSH1 0xFF AND LT ISZERO PUSH2 0x1064 JUMPI DUP3 PUSH1 0x1 PUSH1 0x3 DUP2 LT PUSH2 0xEA4 JUMPI PUSH2 0xEA3 PUSH2 0x1B1D JUMP JUMPDEST JUMPDEST PUSH1 0x20 MUL ADD MLOAD DUP2 PUSH1 0xFF AND PUSH1 0x3 DUP2 LT PUSH2 0xEBE JUMPI PUSH2 0xEBD PUSH2 0x1B1D JUMP JUMPDEST JUMPDEST PUSH1 0x20 MUL ADD MLOAD PUSH1 0x2 DUP2 GT ISZERO PUSH2 0xED5 JUMPI PUSH2 0xED4 PUSH2 0x1AEE JUMP JUMPDEST JUMPDEST DUP4 PUSH1 0x0 PUSH1 0x3 DUP2 LT PUSH2 0xEE9 JUMPI PUSH2 0xEE8 PUSH2 0x1B1D JUMP JUMPDEST JUMPDEST PUSH1 0x20 MUL ADD MLOAD DUP3 PUSH1 0xFF AND PUSH1 0x3 DUP2 LT PUSH2 0xF03 JUMPI PUSH2 0xF02 PUSH2 0x1B1D JUMP JUMPDEST JUMPDEST PUSH1 0x20 MUL ADD MLOAD PUSH1 0x2 DUP2 GT ISZERO PUSH2 0xF1A JUMPI PUSH2 0xF19 PUSH2 0x1AEE JUMP JUMPDEST JUMPDEST EQ DUP1 ISZERO PUSH2 0xFAE JUMPI POP DUP3 PUSH1 0x2 PUSH1 0x3 DUP2 LT PUSH2 0xF36 JUMPI PUSH2 0xF35 PUSH2 0x1B1D JUMP JUMPDEST JUMPDEST PUSH1 0x20 MUL ADD MLOAD DUP2 PUSH1 0xFF AND PUSH1 0x3 DUP2 LT PUSH2 0xF50 JUMPI PUSH2 0xF4F PUSH2 0x1B1D JUMP JUMPDEST JUMPDEST PUSH1 0x20 MUL ADD MLOAD PUSH1 0x2 DUP2 GT ISZERO PUSH2 0xF67 JUMPI PUSH2 0xF66 PUSH2 0x1AEE JUMP JUMPDEST JUMPDEST DUP4 PUSH1 0x1 PUSH1 0x3 DUP2 LT PUSH2 0xF7B JUMPI PUSH2 0xF7A PUSH2 0x1B1D JUMP JUMPDEST JUMPDEST PUSH1 0x20 MUL ADD MLOAD DUP3 PUSH1 0xFF AND PUSH1 0x3 DUP2 LT PUSH2 0xF95 JUMPI PUSH2 0xF94 PUSH2 0x1B1D JUMP JUMPDEST JUMPDEST PUSH1 0x20 MUL ADD MLOAD PUSH1 0x2 DUP2 GT ISZERO PUSH2 0xFAC JUMPI PUSH2 0xFAB PUSH2 0x1AEE JUMP JUMPDEST JUMPDEST EQ JUMPDEST DUP1 ISZERO PUSH2 0x1011 JUMPI POP PUSH1 0x0 PUSH1 0x2 DUP2 GT ISZERO PUSH2 0xFC9 JUMPI PUSH2 0xFC8 PUSH2 0x1AEE JUMP JUMPDEST JUMPDEST DUP4 PUSH1 0x0 PUSH1 0x3 DUP2 LT PUSH2 0xFDD JUMPI PUSH2 0xFDC PUSH2 0x1B1D JUMP JUMPDEST JUMPDEST PUSH1 0x20 MUL ADD MLOAD DUP3 PUSH1 0xFF AND PUSH1 0x3 DUP2 LT PUSH2 0xFF7 JUMPI PUSH2 0xFF6 PUSH2 0x1B1D JUMP JUMPDEST JUMPDEST PUSH1 0x20 MUL ADD MLOAD PUSH1 0x2 DUP2 GT ISZERO PUSH2 0x100E JUMPI PUSH2 0x100D PUSH2 0x1AEE JUMP JUMPDEST JUMPDEST EQ ISZERO JUMPDEST ISZERO PUSH2 0x1051 JUMPI DUP3 PUSH1 0x0 PUSH1 0x3 DUP2 LT PUSH2 0x102A JUMPI PUSH2 0x1029 PUSH2 0x1B1D JUMP JUMPDEST JUMPDEST PUSH1 0x20 MUL ADD MLOAD DUP2 PUSH1 0xFF AND PUSH1 0x3 DUP2 LT PUSH2 0x1044 JUMPI PUSH2 0x1043 PUSH2 0x1B1D JUMP JUMPDEST JUMPDEST PUSH1 0x20 MUL ADD MLOAD SWAP2 POP POP PUSH2 0x106A JUMP JUMPDEST DUP1 DUP1 PUSH2 0x105C SWAP1 PUSH2 0x1A95 JUMP JUMPDEST SWAP2 POP POP PUSH2 0xE84 JUMP JUMPDEST POP PUSH1 0x0 SWAP1 POP JUMPDEST SWAP2 SWAP1 POP JUMP JUMPDEST PUSH1 0x0 DUP2 PUSH1 0x1 PUSH1 0x3 DUP2 LT PUSH2 0x1085 JUMPI PUSH2 0x1084 PUSH2 0x1B1D JUMP JUMPDEST JUMPDEST PUSH1 0x20 MUL ADD MLOAD PUSH1 0x1 PUSH1 0x3 DUP2 LT PUSH2 0x109D JUMPI PUSH2 0x109C PUSH2 0x1B1D JUMP JUMPDEST JUMPDEST PUSH1 0x20 MUL ADD MLOAD PUSH1 0x2 DUP2 GT ISZERO PUSH2 0x10B4 JUMPI PUSH2 0x10B3 PUSH2 0x1AEE JUMP JUMPDEST JUMPDEST DUP3 PUSH1 0x0 PUSH1 0x3 DUP2 LT PUSH2 0x10C8 JUMPI PUSH2 0x10C7 PUSH2 0x1B1D JUMP JUMPDEST JUMPDEST PUSH1 0x20 MUL ADD MLOAD PUSH1 0x0 PUSH1 0x3 DUP2 LT PUSH2 0x10E0 JUMPI PUSH2 0x10DF PUSH2 0x1B1D JUMP JUMPDEST JUMPDEST PUSH1 0x20 MUL ADD MLOAD PUSH1 0x2 DUP2 GT ISZERO PUSH2 0x10F7 JUMPI PUSH2 0x10F6 PUSH2 0x1AEE JUMP JUMPDEST JUMPDEST EQ DUP1 ISZERO PUSH2 0x1187 JUMPI POP DUP2 PUSH1 0x2 PUSH1 0x3 DUP2 LT PUSH2 0x1113 JUMPI PUSH2 0x1112 PUSH2 0x1B1D JUMP JUMPDEST JUMPDEST PUSH1 0x20 MUL ADD MLOAD PUSH1 0x2 PUSH1 0x3 DUP2 LT PUSH2 0x112B JUMPI PUSH2 0x112A PUSH2 0x1B1D JUMP JUMPDEST JUMPDEST PUSH1 0x20 MUL ADD MLOAD PUSH1 0x2 DUP2 GT ISZERO PUSH2 0x1142 JUMPI PUSH2 0x1141 PUSH2 0x1AEE JUMP JUMPDEST JUMPDEST DUP3 PUSH1 0x1 PUSH1 0x3 DUP2 LT PUSH2 0x1156 JUMPI PUSH2 0x1155 PUSH2 0x1B1D JUMP JUMPDEST JUMPDEST PUSH1 0x20 MUL ADD MLOAD PUSH1 0x1 PUSH1 0x3 DUP2 LT PUSH2 0x116E JUMPI PUSH2 0x116D PUSH2 0x1B1D JUMP JUMPDEST JUMPDEST PUSH1 0x20 MUL ADD MLOAD PUSH1 0x2 DUP2 GT ISZERO PUSH2 0x1185 JUMPI PUSH2 0x1184 PUSH2 0x1AEE JUMP JUMPDEST JUMPDEST EQ JUMPDEST DUP1 ISZERO PUSH2 0x11E8 JUMPI POP PUSH1 0x0 PUSH1 0x2 DUP2 GT ISZERO PUSH2 0x11A2 JUMPI PUSH2 0x11A1 PUSH2 0x1AEE JUMP JUMPDEST JUMPDEST DUP3 PUSH1 0x0 PUSH1 0x3 DUP2 LT PUSH2 0x11B6 JUMPI PUSH2 0x11B5 PUSH2 0x1B1D JUMP JUMPDEST JUMPDEST PUSH1 0x20 MUL ADD MLOAD PUSH1 0x0 PUSH1 0x3 DUP2 LT PUSH2 0x11CE JUMPI PUSH2 0x11CD PUSH2 0x1B1D JUMP JUMPDEST JUMPDEST PUSH1 0x20 MUL ADD MLOAD PUSH1 0x2 DUP2 GT ISZERO PUSH2 0x11E5 JUMPI PUSH2 0x11E4 PUSH2 0x1AEE JUMP JUMPDEST JUMPDEST EQ ISZERO JUMPDEST ISZERO PUSH2 0x1225 JUMPI DUP2 PUSH1 0x0 PUSH1 0x3 DUP2 LT PUSH2 0x1201 JUMPI PUSH2 0x1200 PUSH2 0x1B1D JUMP JUMPDEST JUMPDEST PUSH1 0x20 MUL ADD MLOAD PUSH1 0x0 PUSH1 0x3 DUP2 LT PUSH2 0x1219 JUMPI PUSH2 0x1218 PUSH2 0x1B1D JUMP JUMPDEST JUMPDEST PUSH1 0x20 MUL ADD MLOAD SWAP1 POP PUSH2 0x13DE JUMP JUMPDEST DUP2 PUSH1 0x1 PUSH1 0x3 DUP2 LT PUSH2 0x1239 JUMPI PUSH2 0x1238 PUSH2 0x1B1D JUMP JUMPDEST JUMPDEST PUSH1 0x20 MUL ADD MLOAD PUSH1 0x1 PUSH1 0x3 DUP2 LT PUSH2 0x1251 JUMPI PUSH2 0x1250 PUSH2 0x1B1D JUMP JUMPDEST JUMPDEST PUSH1 0x20 MUL ADD MLOAD PUSH1 0x2 DUP2 GT ISZERO PUSH2 0x1268 JUMPI PUSH2 0x1267 PUSH2 0x1AEE JUMP JUMPDEST JUMPDEST DUP3 PUSH1 0x0 PUSH1 0x3 DUP2 LT PUSH2 0x127C JUMPI PUSH2 0x127B PUSH2 0x1B1D JUMP JUMPDEST JUMPDEST PUSH1 0x20 MUL ADD MLOAD PUSH1 0x2 PUSH1 0x3 DUP2 LT PUSH2 0x1294 JUMPI PUSH2 0x1293 PUSH2 0x1B1D JUMP JUMPDEST JUMPDEST PUSH1 0x20 MUL ADD MLOAD PUSH1 0x2 DUP2 GT ISZERO PUSH2 0x12AB JUMPI PUSH2 0x12AA PUSH2 0x1AEE JUMP JUMPDEST JUMPDEST EQ DUP1 ISZERO PUSH2 0x133B JUMPI POP DUP2 PUSH1 0x2 PUSH1 0x3 DUP2 LT PUSH2 0x12C7 JUMPI PUSH2 0x12C6 PUSH2 0x1B1D JUMP JUMPDEST JUMPDEST PUSH1 0x20 MUL ADD MLOAD PUSH1 0x0 PUSH1 0x3 DUP2 LT PUSH2 0x12DF JUMPI PUSH2 0x12DE PUSH2 0x1B1D JUMP JUMPDEST JUMPDEST PUSH1 0x20 MUL ADD MLOAD PUSH1 0x2 DUP2 GT ISZERO PUSH2 0x12F6 JUMPI PUSH2 0x12F5 PUSH2 0x1AEE JUMP JUMPDEST JUMPDEST DUP3 PUSH1 0x1 PUSH1 0x3 DUP2 LT PUSH2 0x130A JUMPI PUSH2 0x1309 PUSH2 0x1B1D JUMP JUMPDEST JUMPDEST PUSH1 0x20 MUL ADD MLOAD PUSH1 0x1 PUSH1 0x3 DUP2 LT PUSH2 0x1322 JUMPI PUSH2 0x1321 PUSH2 0x1B1D JUMP JUMPDEST JUMPDEST PUSH1 0x20 MUL ADD MLOAD PUSH1 0x2 DUP2 GT ISZERO PUSH2 0x1339 JUMPI PUSH2 0x1338 PUSH2 0x1AEE JUMP JUMPDEST JUMPDEST EQ JUMPDEST DUP1 ISZERO PUSH2 0x139C JUMPI POP PUSH1 0x0 PUSH1 0x2 DUP2 GT ISZERO PUSH2 0x1356 JUMPI PUSH2 0x1355 PUSH2 0x1AEE JUMP JUMPDEST JUMPDEST DUP3 PUSH1 0x0 PUSH1 0x3 DUP2 LT PUSH2 0x136A JUMPI PUSH2 0x1369 PUSH2 0x1B1D JUMP JUMPDEST JUMPDEST PUSH1 0x20 MUL ADD MLOAD PUSH1 0x2 PUSH1 0x3 DUP2 LT PUSH2 0x1382 JUMPI PUSH2 0x1381 PUSH2 0x1B1D JUMP JUMPDEST JUMPDEST PUSH1 0x20 MUL ADD MLOAD PUSH1 0x2 DUP2 GT ISZERO PUSH2 0x1399 JUMPI PUSH2 0x1398 PUSH2 0x1AEE JUMP JUMPDEST JUMPDEST EQ ISZERO JUMPDEST ISZERO PUSH2 0x13D9 JUMPI DUP2 PUSH1 0x0 PUSH1 0x3 DUP2 LT PUSH2 0x13B5 JUMPI PUSH2 0x13B4 PUSH2 0x1B1D JUMP JUMPDEST JUMPDEST PUSH1 0x20 MUL ADD MLOAD PUSH1 0x2 PUSH1 0x3 DUP2 LT PUSH2 0x13CD JUMPI PUSH2 0x13CC PUSH2 0x1B1D JUMP JUMPDEST JUMPDEST PUSH1 0x20 MUL ADD MLOAD SWAP1 POP PUSH2 0x13DE JUMP JUMPDEST PUSH1 0x0 SWAP1 POP JUMPDEST SWAP2 SWAP1 POP JUMP JUMPDEST PUSH1 0x0 DUP1 PUSH1 0x0 SWAP1 POP JUMPDEST PUSH1 0x3 DUP2 PUSH1 0xFF AND LT ISZERO PUSH2 0x1499 JUMPI PUSH1 0x0 JUMPDEST PUSH1 0x3 DUP2 PUSH1 0xFF AND LT ISZERO PUSH2 0x1485 JUMPI PUSH1 0x0 PUSH1 0x2 DUP2 GT ISZERO PUSH2 0x141A JUMPI PUSH2 0x1419 PUSH2 0x1AEE JUMP JUMPDEST JUMPDEST DUP5 DUP4 PUSH1 0xFF AND PUSH1 0x3 DUP2 LT PUSH2 0x1430 JUMPI PUSH2 0x142F PUSH2 0x1B1D JUMP JUMPDEST JUMPDEST PUSH1 0x20 MUL ADD MLOAD DUP3 PUSH1 0xFF AND PUSH1 0x3 DUP2 LT PUSH2 0x144A JUMPI PUSH2 0x1449 PUSH2 0x1B1D JUMP JUMPDEST JUMPDEST PUSH1 0x20 MUL ADD MLOAD PUSH1 0x2 DUP2 GT ISZERO PUSH2 0x1461 JUMPI PUSH2 0x1460 PUSH2 0x1AEE JUMP JUMPDEST JUMPDEST EQ ISZERO PUSH2 0x1472 JUMPI PUSH1 0x0 SWAP3 POP POP POP PUSH2 0x149F JUMP JUMPDEST DUP1 DUP1 PUSH2 0x147D SWAP1 PUSH2 0x1A95 JUMP JUMPDEST SWAP2 POP POP PUSH2 0x13FA JUMP JUMPDEST POP DUP1 DUP1 PUSH2 0x1491 SWAP1 PUSH2 0x1A95 JUMP JUMPDEST SWAP2 POP POP PUSH2 0x13EB JUMP JUMPDEST POP PUSH1 0x1 SWAP1 POP JUMPDEST SWAP2 SWAP1 POP JUMP JUMPDEST PUSH1 0x40 MLOAD DUP1 PUSH1 0xA0 ADD PUSH1 0x40 MSTORE DUP1 PUSH1 0x0 PUSH20 0xFFFFFFFFFFFFFFFFFFFFFFFFFFFFFFFFFFFFFFFF AND DUP2 MSTORE PUSH1 0x20 ADD PUSH1 0x0 PUSH20 0xFFFFFFFFFFFFFFFFFFFFFFFFFFFFFFFFFFFFFFFF AND DUP2 MSTORE PUSH1 0x20 ADD PUSH1 0x0 PUSH1 0x3 DUP2 GT ISZERO PUSH2 0x14FD JUMPI PUSH2 0x14FC PUSH2 0x1AEE JUMP JUMPDEST JUMPDEST DUP2 MSTORE PUSH1 0x20 ADD PUSH1 0x0 PUSH1 0x2 DUP2 GT ISZERO PUSH2 0x1516 JUMPI PUSH2 0x1515 PUSH2 0x1AEE JUMP JUMPDEST JUMPDEST DUP2 MSTORE PUSH1 0x20 ADD PUSH2 0x1523 PUSH2 0x1577 JUMP JUMPDEST DUP2 MSTORE POP SWAP1 JUMP JUMPDEST DUP3 PUSH1 0x3 DUP2 ADD SWAP3 DUP3 ISZERO PUSH2 0x1566 JUMPI SWAP2 PUSH1 0x20 MUL DUP3 ADD JUMPDEST DUP3 DUP2 GT ISZERO PUSH2 0x1565 JUMPI DUP3 MLOAD DUP3 SWAP1 PUSH1 0x3 PUSH2 0x1555 SWAP3 SWAP2 SWAP1 PUSH2 0x15A4 JUMP JUMPDEST POP SWAP2 PUSH1 0x20 ADD SWAP2 SWAP1 PUSH1 0x1 ADD SWAP1 PUSH2 0x153C JUMP JUMPDEST JUMPDEST POP SWAP1 POP PUSH2 0x1573 SWAP2 SWAP1 PUSH2 0x164D JUMP JUMPDEST POP SWAP1 JUMP JUMPDEST PUSH1 0x40 MLOAD DUP1 PUSH1 0x60 ADD PUSH1 0x40 MSTORE DUP1 PUSH1 0x3 SWAP1 JUMPDEST PUSH2 0x158E PUSH2 0x1671 JUMP JUMPDEST DUP2 MSTORE PUSH1 0x20 ADD SWAP1 PUSH1 0x1 SWAP1 SUB SWAP1 DUP2 PUSH2 0x1586 JUMPI SWAP1 POP POP SWAP1 JUMP JUMPDEST DUP3 PUSH1 0x3 PUSH1 0x1F ADD PUSH1 0x20 SWAP1 DIV DUP2 ADD SWAP3 DUP3 ISZERO PUSH2 0x163C JUMPI SWAP2 PUSH1 0x20 MUL DUP3 ADD PUSH1 0x0 JUMPDEST DUP4 DUP3 GT ISZERO PUSH2 0x160D JUMPI DUP4 MLOAD DUP4 DUP3 PUSH2 0x100 EXP DUP2 SLOAD DUP2 PUSH1 0xFF MUL NOT AND SWAP1 DUP4 PUSH1 0x2 DUP2 GT ISZERO PUSH2 0x15EC JUMPI PUSH2 0x15EB PUSH2 0x1AEE JUMP JUMPDEST JUMPDEST MUL OR SWAP1 SSTORE POP SWAP3 PUSH1 0x20 ADD SWAP3 PUSH1 0x1 ADD PUSH1 0x20 DUP2 PUSH1 0x0 ADD DIV SWAP3 DUP4 ADD SWAP3 PUSH1 0x1 SUB MUL PUSH2 0x15C0 JUMP JUMPDEST DUP1 ISZERO PUSH2 0x163A JUMPI DUP3 DUP2 PUSH2 0x100 EXP DUP2 SLOAD SWAP1 PUSH1 0xFF MUL NOT AND SWAP1 SSTORE PUSH1 0x1 ADD PUSH1 0x20 DUP2 PUSH1 0x0 ADD DIV SWAP3 DUP4 ADD SWAP3 PUSH1 0x1 SUB MUL PUSH2 0x160D JUMP JUMPDEST POP JUMPDEST POP SWAP1 POP PUSH2 0x1649 SWAP2 SWAP1 PUSH2 0x1693 JUMP JUMPDEST POP SWAP1 JUMP JUMPDEST JUMPDEST DUP1 DUP3 GT ISZERO PUSH2 0x166D JUMPI PUSH1 0x0 DUP2 DUP2 PUSH2 0x1664 SWAP2 SWAP1 PUSH2 0x16B0 JUMP JUMPDEST POP PUSH1 0x1 ADD PUSH2 0x164E JUMP JUMPDEST POP SWAP1 JUMP JUMPDEST PUSH1 0x40 MLOAD DUP1 PUSH1 0x60 ADD PUSH1 0x40 MSTORE DUP1 PUSH1 0x3 SWAP1 PUSH1 0x20 DUP3 MUL DUP1 CALLDATASIZE DUP4 CALLDATACOPY DUP1 DUP3 ADD SWAP2 POP POP SWAP1 POP POP SWAP1 JUMP JUMPDEST JUMPDEST DUP1 DUP3 GT ISZERO PUSH2 0x16AC JUMPI PUSH1 0x0 DUP2 PUSH1 0x0 SWAP1 SSTORE POP PUSH1 0x1 ADD PUSH2 0x1694 JUMP JUMPDEST POP SWAP1 JUMP JUMPDEST POP PUSH1 0x0 SWAP1 SSTORE JUMP JUMPDEST PUSH1 0x0 DUP2 CALLDATALOAD SWAP1 POP PUSH2 0x16C6 DUP2 PUSH2 0x1C58 JUMP JUMPDEST SWAP3 SWAP2 POP POP JUMP JUMPDEST PUSH1 0x0 PUSH1 0x20 DUP3 DUP5 SUB SLT ISZERO PUSH2 0x16E2 JUMPI PUSH2 0x16E1 PUSH2 0x1B4C JUMP JUMPDEST JUMPDEST PUSH1 0x0 PUSH2 0x16F0 DUP5 DUP3 DUP6 ADD PUSH2 0x16B7 JUMP JUMPDEST SWAP2 POP POP SWAP3 SWAP2 POP POP JUMP JUMPDEST PUSH1 0x0 DUP1 PUSH1 0x0 PUSH1 0x60 DUP5 DUP7 SUB SLT ISZERO PUSH2 0x1712 JUMPI PUSH2 0x1711 PUSH2 0x1B4C JUMP JUMPDEST JUMPDEST PUSH1 0x0 PUSH2 0x1720 DUP7 DUP3 DUP8 ADD PUSH2 0x16B7 JUMP JUMPDEST SWAP4 POP POP PUSH1 0x20 PUSH2 0x1731 DUP7 DUP3 DUP8 ADD PUSH2 0x16B7 JUMP JUMPDEST SWAP3 POP POP PUSH1 0x40 PUSH2 0x1742 DUP7 DUP3 DUP8 ADD PUSH2 0x16B7 JUMP JUMPDEST SWAP2 POP POP SWAP3 POP SWAP3 POP SWAP3 JUMP JUMPDEST PUSH2 0x1755 DUP2 PUSH2 0x1A27 JUMP JUMPDEST DUP3 MSTORE POP POP JUMP JUMPDEST PUSH2 0x1764 DUP2 PUSH2 0x1A83 JUMP JUMPDEST DUP3 MSTORE POP POP JUMP JUMPDEST PUSH1 0x0 PUSH2 0x1777 PUSH1 0x31 DUP4 PUSH2 0x19C0 JUMP JUMPDEST SWAP2 POP PUSH2 0x1782 DUP3 PUSH2 0x1B51 JUMP JUMPDEST PUSH1 0x40 DUP3 ADD SWAP1 POP SWAP2 SWAP1 POP JUMP JUMPDEST PUSH1 0x0 PUSH2 0x179A PUSH1 0x14 DUP4 PUSH2 0x19C0 JUMP JUMPDEST SWAP2 POP PUSH2 0x17A5 DUP3 PUSH2 0x1BA0 JUMP JUMPDEST PUSH1 0x20 DUP3 ADD SWAP1 POP SWAP2 SWAP1 POP JUMP JUMPDEST PUSH1 0x0 PUSH2 0x17BD PUSH1 0x15 DUP4 PUSH2 0x19C0 JUMP JUMPDEST SWAP2 POP PUSH2 0x17C8 DUP3 PUSH2 0x1BC9 JUMP JUMPDEST PUSH1 0x20 DUP3 ADD SWAP1 POP SWAP2 SWAP1 POP JUMP JUMPDEST PUSH1 0x0 PUSH2 0x17E0 PUSH1 0x14 DUP4 PUSH2 0x19C0 JUMP JUMPDEST SWAP2 POP PUSH2 0x17EB DUP3 PUSH2 0x1BF2 JUMP JUMPDEST PUSH1 0x20 DUP3 ADD SWAP1 POP SWAP2 SWAP1 POP JUMP JUMPDEST PUSH1 0x0 PUSH2 0x1803 PUSH1 0x1B DUP4 PUSH2 0x19C0 JUMP JUMPDEST SWAP2 POP PUSH2 0x180E DUP3 PUSH2 0x1C1B JUMP JUMPDEST PUSH1 0x20 DUP3 ADD SWAP1 POP SWAP2 SWAP1 POP JUMP JUMPDEST PUSH2 0x1822 DUP2 PUSH2 0x1A6C JUMP JUMPDEST DUP3 MSTORE POP POP JUMP JUMPDEST PUSH2 0x1831 DUP2 PUSH2 0x1A76 JUMP JUMPDEST DUP3 MSTORE POP POP JUMP JUMPDEST PUSH1 0x0 PUSH1 0x20 DUP3 ADD SWAP1 POP DUP2 DUP2 SUB PUSH1 0x0 DUP4 ADD MSTORE PUSH2 0x1850 DUP2 PUSH2 0x176A JUMP JUMPDEST SWAP1 POP SWAP2 SWAP1 POP JUMP JUMPDEST PUSH1 0x0 PUSH1 0x20 DUP3 ADD SWAP1 POP DUP2 DUP2 SUB PUSH1 0x0 DUP4 ADD MSTORE PUSH2 0x1870 DUP2 PUSH2 0x178D JUMP JUMPDEST SWAP1 POP SWAP2 SWAP1 POP JUMP JUMPDEST PUSH1 0x0 PUSH1 0x20 DUP3 ADD SWAP1 POP DUP2 DUP2 SUB PUSH1 0x0 DUP4 ADD MSTORE PUSH2 0x1890 DUP2 PUSH2 0x17B0 JUMP JUMPDEST SWAP1 POP SWAP2 SWAP1 POP JUMP JUMPDEST PUSH1 0x0 PUSH1 0x20 DUP3 ADD SWAP1 POP DUP2 DUP2 SUB PUSH1 0x0 DUP4 ADD MSTORE PUSH2 0x18B0 DUP2 PUSH2 0x17D3 JUMP JUMPDEST SWAP1 POP SWAP2 SWAP1 POP JUMP JUMPDEST PUSH1 0x0 PUSH1 0x20 DUP3 ADD SWAP1 POP DUP2 DUP2 SUB PUSH1 0x0 DUP4 ADD MSTORE PUSH2 0x18D0 DUP2 PUSH2 0x17F6 JUMP JUMPDEST SWAP1 POP SWAP2 SWAP1 POP JUMP JUMPDEST PUSH1 0x0 PUSH1 0x20 DUP3 ADD SWAP1 POP PUSH2 0x18EC PUSH1 0x0 DUP4 ADD DUP5 PUSH2 0x1819 JUMP JUMPDEST SWAP3 SWAP2 POP POP JUMP JUMPDEST PUSH1 0x0 PUSH1 0x40 DUP3 ADD SWAP1 POP PUSH2 0x1907 PUSH1 0x0 DUP4 ADD DUP6 PUSH2 0x1819 JUMP JUMPDEST PUSH2 0x1914 PUSH1 0x20 DUP4 ADD DUP5 PUSH2 0x174C JUMP JUMPDEST SWAP4 SWAP3 POP POP POP JUMP JUMPDEST PUSH1 0x0 PUSH1 0x80 DUP3 ADD SWAP1 POP PUSH2 0x1930 PUSH1 0x0 DUP4 ADD DUP8 PUSH2 0x1819 JUMP JUMPDEST PUSH2 0x193D PUSH1 0x20 DUP4 ADD DUP7 PUSH2 0x174C JUMP JUMPDEST PUSH2 0x194A PUSH1 0x40 DUP4 ADD DUP6 PUSH2 0x1819 JUMP JUMPDEST PUSH2 0x1957 PUSH1 0x60 DUP4 ADD DUP5 PUSH2 0x1819 JUMP JUMPDEST SWAP6 SWAP5 POP POP POP POP POP JUMP JUMPDEST PUSH1 0x0 PUSH1 0x60 DUP3 ADD SWAP1 POP PUSH2 0x1975 PUSH1 0x0 DUP4 ADD DUP7 PUSH2 0x1819 JUMP JUMPDEST PUSH2 0x1982 PUSH1 0x20 DUP4 ADD DUP6 PUSH2 0x174C JUMP JUMPDEST PUSH2 0x198F PUSH1 0x40 DUP4 ADD DUP5 PUSH2 0x1828 JUMP JUMPDEST SWAP5 SWAP4 POP POP POP POP JUMP JUMPDEST PUSH1 0x0 PUSH1 0x40 DUP3 ADD SWAP1 POP PUSH2 0x19AC PUSH1 0x0 DUP4 ADD DUP6 PUSH2 0x1819 JUMP JUMPDEST PUSH2 0x19B9 PUSH1 0x20 DUP4 ADD DUP5 PUSH2 0x175B JUMP JUMPDEST SWAP4 SWAP3 POP POP POP JUMP JUMPDEST PUSH1 0x0 DUP3 DUP3 MSTORE PUSH1 0x20 DUP3 ADD SWAP1 POP SWAP3 SWAP2 POP POP JUMP JUMPDEST PUSH1 0x0 PUSH2 0x19DC DUP3 PUSH2 0x1A6C JUMP JUMPDEST SWAP2 POP PUSH2 0x19E7 DUP4 PUSH2 0x1A6C JUMP JUMPDEST SWAP3 POP DUP3 PUSH32 0xFFFFFFFFFFFFFFFFFFFFFFFFFFFFFFFFFFFFFFFFFFFFFFFFFFFFFFFFFFFFFFFF SUB DUP3 GT ISZERO PUSH2 0x1A1C JUMPI PUSH2 0x1A1B PUSH2 0x1ABF JUMP JUMPDEST JUMPDEST DUP3 DUP3 ADD SWAP1 POP SWAP3 SWAP2 POP POP JUMP JUMPDEST PUSH1 0x0 PUSH2 0x1A32 DUP3 PUSH2 0x1A4C JUMP JUMPDEST SWAP1 POP SWAP2 SWAP1 POP JUMP JUMPDEST PUSH1 0x0 DUP2 SWAP1 POP PUSH2 0x1A47 DUP3 PUSH2 0x1C44 JUMP JUMPDEST SWAP2 SWAP1 POP JUMP JUMPDEST PUSH1 0x0 PUSH20 0xFFFFFFFFFFFFFFFFFFFFFFFFFFFFFFFFFFFFFFFF DUP3 AND SWAP1 POP SWAP2 SWAP1 POP JUMP JUMPDEST PUSH1 0x0 DUP2 SWAP1 POP SWAP2 SWAP1 POP JUMP JUMPDEST PUSH1 0x0 PUSH1 0xFF DUP3 AND SWAP1 POP SWAP2 SWAP1 POP JUMP JUMPDEST PUSH1 0x0 PUSH2 0x1A8E DUP3 PUSH2 0x1A39 JUMP JUMPDEST SWAP1 POP SWAP2 SWAP1 POP JUMP JUMPDEST PUSH1 0x0 PUSH2 0x1AA0 DUP3 PUSH2 0x1A76 JUMP JUMPDEST SWAP2 POP PUSH1 0xFF DUP3 EQ ISZERO PUSH2 0x1AB4 JUMPI PUSH2 0x1AB3 PUSH2 0x1ABF JUMP JUMPDEST JUMPDEST PUSH1 0x1 DUP3 ADD SWAP1 POP SWAP2 SWAP1 POP JUMP JUMPDEST PUSH32 0x4E487B7100000000000000000000000000000000000000000000000000000000 PUSH1 0x0 MSTORE PUSH1 0x11 PUSH1 0x4 MSTORE PUSH1 0x24 PUSH1 0x0 REVERT JUMPDEST PUSH32 0x4E487B7100000000000000000000000000000000000000000000000000000000 PUSH1 0x0 MSTORE PUSH1 0x21 PUSH1 0x4 MSTORE PUSH1 0x24 PUSH1 0x0 REVERT JUMPDEST PUSH32 0x4E487B7100000000000000000000000000000000000000000000000000000000 PUSH1 0x0 MSTORE PUSH1 0x32 PUSH1 0x4 MSTORE PUSH1 0x24 PUSH1 0x0 REVERT JUMPDEST PUSH1 0x0 DUP1 REVERT JUMPDEST PUSH32 0x546865726520697320616C72656164792061206D61726B206174207468652067 PUSH1 0x0 DUP3 ADD MSTORE PUSH32 0x6976656E20636F6F7264696E617465732E000000000000000000000000000000 PUSH1 0x20 DUP3 ADD MSTORE POP JUMP JUMPDEST PUSH32 0x4974206973206E6F7420796F7572207475726E2E000000000000000000000000 PUSH1 0x0 DUP3 ADD MSTORE POP JUMP JUMPDEST PUSH32 0x47616D6520616C726561647920737461727465642E0000000000000000000000 PUSH1 0x0 DUP3 ADD MSTORE POP JUMP JUMPDEST PUSH32 0x4E6F20737563682067616D65206578697374732E000000000000000000000000 PUSH1 0x0 DUP3 ADD MSTORE POP JUMP JUMPDEST PUSH32 0x5468652067616D652068617320616C726561647920656E6465642E0000000000 PUSH1 0x0 DUP3 ADD MSTORE POP JUMP JUMPDEST PUSH1 0x4 DUP2 LT PUSH2 0x1C55 JUMPI PUSH2 0x1C54 PUSH2 0x1AEE JUMP JUMPDEST JUMPDEST POP JUMP JUMPDEST PUSH2 0x1C61 DUP2 PUSH2 0x1A6C JUMP JUMPDEST DUP2 EQ PUSH2 0x1C6C JUMPI PUSH1 0x0 DUP1 REVERT JUMPDEST POP JUMP INVALID LOG2 PUSH5 0x6970667358 0x22 SLT KECCAK256 DIV 0x2A DUP15 0xD9 0xEB EXTCODESIZE ADD CALLER PUSH27 0x83E88B9E39B5B2DB32A23E6BD4E4EF9FC34C1AB1BC40C864736F6C PUSH4 0x43000807 STOP CALLER "
        },
        "gasEstimates": {
            "creation": {
                "codeDepositCost": "1466600",
                "executionCost": "1534",
                "totalCost": "1468134"
            },
            "external": {
                "joinGame(uint256)": "infinite",
                "makeMove(uint256,uint256,uint256)": "infinite",
                "newGame()": "infinite"
            },
            "internal": {
                "calculateWinner(enum TicTacToe.Players[3] memory[3] memory)": "infinite",
                "getCurrentPlayer(struct TicTacToe.Game storage pointer)": "6721",
                "isBoardFull(enum TicTacToe.Players[3] memory[3] memory)": "infinite",
                "nextPlayer(struct TicTacToe.Game storage pointer)": "26635",
                "winnerInColumn(enum TicTacToe.Players[3] memory[3] memory)": "infinite",
                "winnerInDiagonal(enum TicTacToe.Players[3] memory[3] memory)": "infinite",
                "winnerInRow(enum TicTacToe.Players[3] memory[3] memory)": "infinite"
            }
        },
        "methodIdentifiers": {
            "joinGame(uint256)": "efaa55a0",
            "makeMove(uint256,uint256,uint256)": "cfc2f5ff",
            "newGame()": "7d03f5f3"
        }
    },
    "abi": [
        {
            "anonymous": false,
            "inputs": [
                {
                    "indexed": false,
                    "internalType": "uint256",
                    "name": "gameId",
                    "type": "uint256"
                },
                {
                    "indexed": false,
                    "internalType": "address",
                    "name": "creator",
                    "type": "address"
                }
            ],
            "name": "GameCreated",
            "type": "event"
        },
        {
            "anonymous": false,
            "inputs": [
                {
                    "indexed": false,
                    "internalType": "uint256",
                    "name": "gameId",
                    "type": "uint256"
                },
                {
                    "indexed": false,
                    "internalType": "enum TicTacToe.Winners",
                    "name": "winner",
                    "type": "uint8"
                }
            ],
            "name": "GameOver",
            "type": "event"
        },
        {
            "anonymous": false,
            "inputs": [
                {
                    "indexed": false,
                    "internalType": "uint256",
                    "name": "gameId",
                    "type": "uint256"
                },
                {
                    "indexed": false,
                    "internalType": "address",
                    "name": "player",
                    "type": "address"
                },
                {
                    "indexed": false,
                    "internalType": "uint8",
                    "name": "playerNumber",
                    "type": "uint8"
                }
            ],
            "name": "PlayerJoinedGame",
            "type": "event"
        },
        {
            "anonymous": false,
            "inputs": [
                {
                    "indexed": false,
                    "internalType": "uint256",
                    "name": "gameId",
                    "type": "uint256"
                },
                {
                    "indexed": false,
                    "internalType": "address",
                    "name": "player",
                    "type": "address"
                },
                {
                    "indexed": false,
                    "internalType": "uint256",
                    "name": "boardRow",
                    "type": "uint256"
                },
                {
                    "indexed": false,
                    "internalType": "uint256",
                    "name": "boardCol",
                    "type": "uint256"
                }
            ],
            "name": "PlayerMadeMove",
            "type": "event"
        },
        {
            "inputs": [
                {
                    "internalType": "uint256",
                    "name": "_gameId",
                    "type": "uint256"
                }
            ],
            "name": "joinGame",
            "outputs": [],
            "stateMutability": "nonpayable",
            "type": "function"
        },
        {
            "inputs": [
                {
                    "internalType": "uint256",
                    "name": "_gameId",
                    "type": "uint256"
                },
                {
                    "internalType": "uint256",
                    "name": "_boardRow",
                    "type": "uint256"
                },
                {
                    "internalType": "uint256",
                    "name": "_boardCol",
                    "type": "uint256"
                }
            ],
            "name": "makeMove",
            "outputs": [],
            "stateMutability": "nonpayable",
            "type": "function"
        },
        {
            "inputs": [],
            "name": "newGame",
            "outputs": [
                {
                    "internalType": "uint256",
                    "name": "gameId",
                    "type": "uint256"
                }
            ],
            "stateMutability": "nonpayable",
            "type": "function"
        }
    ]
}