{
  "_format": "hh-sol-artifact-1",
  "contractName": "Token",
  "sourceName": "contracts/Token.sol",
  "abi": [
    {
      "anonymous": false,
      "inputs": [
        {
          "indexed": false,
          "internalType": "address",
          "name": "owner",
          "type": "address"
        },
        {
          "indexed": false,
          "internalType": "address",
          "name": "spender",
          "type": "address"
        },
        {
          "indexed": false,
          "internalType": "uint256",
          "name": "amount",
          "type": "uint256"
        }
      ],
      "name": "Approval",
      "type": "event"
    },
    {
      "anonymous": false,
      "inputs": [
        {
          "indexed": false,
          "internalType": "address",
          "name": "from",
          "type": "address"
        },
        {
          "indexed": false,
          "internalType": "address",
          "name": "to",
          "type": "address"
        },
        {
          "indexed": false,
          "internalType": "uint256",
          "name": "amount",
          "type": "uint256"
        }
      ],
      "name": "Transfer",
      "type": "event"
    },
    {
      "inputs": [
        {
          "internalType": "address",
          "name": "spender",
          "type": "address"
        },
        {
          "internalType": "uint256",
          "name": "tokens",
          "type": "uint256"
        }
      ],
      "name": "approve",
      "outputs": [
        {
          "internalType": "bool",
          "name": "success",
          "type": "bool"
        }
      ],
      "stateMutability": "nonpayable",
      "type": "function"
    },
    {
      "inputs": [
        {
          "internalType": "address",
          "name": "tokenOwner",
          "type": "address"
        }
      ],
      "name": "balanceOf",
      "outputs": [
        {
          "internalType": "uint256",
          "name": "balance",
          "type": "uint256"
        }
      ],
      "stateMutability": "view",
      "type": "function"
    },
    {
      "inputs": [],
      "name": "stake",
      "outputs": [],
      "stateMutability": "payable",
      "type": "function"
    },
    {
      "inputs": [
        {
          "internalType": "address",
          "name": "to",
          "type": "address"
        },
        {
          "internalType": "uint256",
          "name": "amount",
          "type": "uint256"
        }
      ],
      "name": "transfer",
      "outputs": [
        {
          "internalType": "bool",
          "name": "success",
          "type": "bool"
        }
      ],
      "stateMutability": "nonpayable",
      "type": "function"
    },
    {
      "inputs": [
        {
          "internalType": "address",
          "name": "from",
          "type": "address"
        },
        {
          "internalType": "address",
          "name": "to",
          "type": "address"
        },
        {
          "internalType": "uint256",
          "name": "amount",
          "type": "uint256"
        }
      ],
      "name": "transferFrom",
      "outputs": [
        {
          "internalType": "bool",
          "name": "success",
          "type": "bool"
        }
      ],
      "stateMutability": "nonpayable",
      "type": "function"
    }
  ],
  "bytecode": "0x60806040526014600260006101000a81548163ffffffff021916908363ffffffff16021790555034801561003257600080fd5b50610cd6806100426000396000f3fe60806040526004361061004a5760003560e01c8063095ea7b31461004f57806323b872dd1461008c5780633a4b66f1146100c957806370a08231146100d3578063a9059cbb14610110575b600080fd5b34801561005b57600080fd5b5061007660048036038101906100719190610840565b61014d565b604051610083919061089b565b60405180910390f35b34801561009857600080fd5b506100b360048036038101906100ae91906108b6565b6102d3565b6040516100c0919061089b565b60405180910390f35b6100d1610485565b005b3480156100df57600080fd5b506100fa60048036038101906100f59190610909565b610505565b6040516101079190610945565b60405180910390f35b34801561011c57600080fd5b5061013760048036038101906101329190610840565b61054d565b604051610144919061089b565b60405180910390f35b600080600160003373ffffffffffffffffffffffffffffffffffffffff1673ffffffffffffffffffffffffffffffffffffffff16815260200190815260200160002060008573ffffffffffffffffffffffffffffffffffffffff1673ffffffffffffffffffffffffffffffffffffffff168152602001908152602001600020541461020d576040517f08c379a0000000000000000000000000000000000000000000000000000000008152600401610204906109e3565b60405180910390fd5b81600160003373ffffffffffffffffffffffffffffffffffffffff1673ffffffffffffffffffffffffffffffffffffffff16815260200190815260200160002060008573ffffffffffffffffffffffffffffffffffffffff1673ffffffffffffffffffffffffffffffffffffffff168152602001908152602001600020819055507f8c5be1e5ebec7d5bd14f71427d1e84f3dd0314c0f7b2291e5b200ac8c7c3b9253384846040516102c193929190610a12565b60405180910390a16001905092915050565b600081600160008673ffffffffffffffffffffffffffffffffffffffff1673ffffffffffffffffffffffffffffffffffffffff16815260200190815260200160002060003373ffffffffffffffffffffffffffffffffffffffff1673ffffffffffffffffffffffffffffffffffffffff168152602001908152602001600020541015610394576040517f08c379a000000000000000000000000000000000000000000000000000000000815260040161038b90610a95565b60405180910390fd5b81600160008673ffffffffffffffffffffffffffffffffffffffff1673ffffffffffffffffffffffffffffffffffffffff16815260200190815260200160002060003373ffffffffffffffffffffffffffffffffffffffff1673ffffffffffffffffffffffffffffffffffffffff16815260200190815260200160002060008282546104209190610ae4565b9250508190555061043f84848460006105ac909392919063ffffffff16565b7fddf252ad1be2c89b69c2b068fc378daa952ba7f163c4a11628f55a4df523b3ef84848460405161047293929190610a12565b60405180910390a1600190509392505050565b6000600260009054906101000a900463ffffffff1663ffffffff16346104ab9190610b18565b9050806000803373ffffffffffffffffffffffffffffffffffffffff1673ffffffffffffffffffffffffffffffffffffffff16815260200190815260200160002060008282546104fb9190610b72565b9250508190555050565b60008060008373ffffffffffffffffffffffffffffffffffffffff1673ffffffffffffffffffffffffffffffffffffffff168152602001908152602001600020549050919050565b600061056733848460006105ac909392919063ffffffff16565b7fddf252ad1be2c89b69c2b068fc378daa952ba7f163c4a11628f55a4df523b3ef33848460405161059a93929190610a12565b60405180910390a16001905092915050565b808460008573ffffffffffffffffffffffffffffffffffffffff1673ffffffffffffffffffffffffffffffffffffffff16815260200190815260200160002054101561062d576040517f08c379a000000000000000000000000000000000000000000000000000000000815260040161062490610c14565b60405180910390fd5b8360008373ffffffffffffffffffffffffffffffffffffffff1673ffffffffffffffffffffffffffffffffffffffff16815260200190815260200160002054818560008573ffffffffffffffffffffffffffffffffffffffff1673ffffffffffffffffffffffffffffffffffffffff168152602001908152602001600020546106b69190610b72565b10156106f7576040517f08c379a00000000000000000000000000000000000000000000000000000000081526004016106ee90610c80565b60405180910390fd5b808460008573ffffffffffffffffffffffffffffffffffffffff1673ffffffffffffffffffffffffffffffffffffffff16815260200190815260200160002060008282546107459190610ae4565b92505081905550808460008473ffffffffffffffffffffffffffffffffffffffff1673ffffffffffffffffffffffffffffffffffffffff168152602001908152602001600020600082825461079a9190610b72565b9250508190555050505050565b600080fd5b600073ffffffffffffffffffffffffffffffffffffffff82169050919050565b60006107d7826107ac565b9050919050565b6107e7816107cc565b81146107f257600080fd5b50565b600081359050610804816107de565b92915050565b6000819050919050565b61081d8161080a565b811461082857600080fd5b50565b60008135905061083a81610814565b92915050565b60008060408385031215610857576108566107a7565b5b6000610865858286016107f5565b92505060206108768582860161082b565b9150509250929050565b60008115159050919050565b61089581610880565b82525050565b60006020820190506108b0600083018461088c565b92915050565b6000806000606084860312156108cf576108ce6107a7565b5b60006108dd868287016107f5565b93505060206108ee868287016107f5565b92505060406108ff8682870161082b565b9150509250925092565b60006020828403121561091f5761091e6107a7565b5b600061092d848285016107f5565b91505092915050565b61093f8161080a565b82525050565b600060208201905061095a6000830184610936565b92915050565b600082825260208201905092915050565b7f48617320616c6c6f77616e63652c2063616e277420617070726f7665206d6f7260008201527f6500000000000000000000000000000000000000000000000000000000000000602082015250565b60006109cd602183610960565b91506109d882610971565b604082019050919050565b600060208201905081810360008301526109fc816109c0565b9050919050565b610a0c816107cc565b82525050565b6000606082019050610a276000830186610a03565b610a346020830185610a03565b610a416040830184610936565b949350505050565b7f4e6f7420656e6f75676820616c6c6f77616e6365000000000000000000000000600082015250565b6000610a7f601483610960565b9150610a8a82610a49565b602082019050919050565b60006020820190508181036000830152610aae81610a72565b9050919050565b7f4e487b7100000000000000000000000000000000000000000000000000000000600052601160045260246000fd5b6000610aef8261080a565b9150610afa8361080a565b925082821015610b0d57610b0c610ab5565b5b828203905092915050565b6000610b238261080a565b9150610b2e8361080a565b9250817fffffffffffffffffffffffffffffffffffffffffffffffffffffffffffffffff0483118215151615610b6757610b66610ab5565b5b828202905092915050565b6000610b7d8261080a565b9150610b888361080a565b9250827fffffffffffffffffffffffffffffffffffffffffffffffffffffffffffffffff03821115610bbd57610bbc610ab5565b5b828201905092915050565b7f4e6f7420656e6f7567682062616c616e63650000000000000000000000000000600082015250565b6000610bfe601283610960565b9150610c0982610bc8565b602082019050919050565b60006020820190508181036000830152610c2d81610bf1565b9050919050565b7f42616c616e6365204f766572666c6f7700000000000000000000000000000000600082015250565b6000610c6a601083610960565b9150610c7582610c34565b602082019050919050565b60006020820190508181036000830152610c9981610c5d565b905091905056fea26469706673582212206a919534a5f2b8939885541b3e3df8b3ee48535823a8cfa339be7dec1a57b61864736f6c63430008090033",
  "linkReferences": {},
  "deployedLinkReferences": {}
}